:020000040800F2
:1000000000000820550A0008850800088D0800082F
:10001000950800089D080008A508000800000000D9
:10002000000000000000000000000000AD08000813
:10003000BB08000800000000C9080008D708000835
:10004000A50A0008A50A0008A50A0008A50A0008D4
:10005000A50A0008A50A0008A50A0008A50A0008C4
:10006000A50A0008A50A0008A50A0008A50A0008B4
:10007000A50A0008A50A0008A50A0008A50A0008A4
:10008000A50A0008A50A0008A50A0008A50A000894
:10009000A50A0008A50A0008A50A0008A50A000884
:1000A000A50A0008A50A0008A50A0008A50A000874
:1000B000A50A0008A50A0008A50A0008A50A000864
:1000C000A50A0008A50A0008A50A0008A50A000854
:1000D000A50A0008A50A0008A50A0008A50A000844
:1000E000A50A0008A50A0008A50A0008A50A000834
:1000F000A50A0008A50A0008A50A0008A50A000824
:10010000A50A0008A50A0008A50A0008A50A000813
:10011000A50A0008A50A0008A50A0008A50A000803
:10012000A50A0008A50A0008A50A0008A50A0008F3
:10013000A50A0008A50A0008A50A0008A50A0008E3
:10014000A50A0008A50A0008A50A0008A50A0008D3
:10015000A50A0008A50A0008A50A0008A50A0008C3
:10016000A50A0008A50A0008A50A0008A50A0008B3
:10017000A50A0008A50A0008A50A0008000000005A
:10018000A50A0008A50A0008A50A0008A50A000893
:10019000A50A0008A50A0008A50A0008A50A000883
:1001A000A50A0008A50A0008A50A0008A50A000873
:1001B000A50A0008A50A0008A50A0008A50A000863
:1001C000A50A0008A50A000800000000A50A00080A
:1001D000A50A0008A50A0008A50A0008A50A000843
:1001E000A50A0008A50A0008A50A0008A50A000833
:0801F000A50A0008A50A000899
:1001F80010B5054C237833B9044B13B10448AFF359
:1002080000800123237010BD68000020000000005A
:10021800B436000808B5034B1BB103490348AFF3D4
:10022800008008BD000000006C000020B436000803
:1002380053B94AB9002908BF00281CBF4FF0FF3145
:100248004FF0FF3000F06AB9ADF1080C6DE904CE4B
:1002580000F006F8DDF804E0DDE9022304B0704799
:100268002DE9F047089D0C46002B4ED194468C454D
:100278008646B2FA82F262D94AB1C2F120039140AD
:1002880020FA03F30CFA02FC194300FA02FE4FEAC3
:100298001C471FFA8CF6B1FBF7F44FEA1E4307FB25
:1002A800141143EA014304FB06F199420AD91CEBF5
:1002B800030304F1FF3080F01281994240F20F816C
:1002C800023C6344591A1FFA8EF3B1FBF7F007FB9F
:1002D800101143EA014300FB06F69E420AD91CEBC3
:1002E800030300F1FF3180F0FC809E4240F2F98068
:1002F800634402389B1B40EA044000211DB1D340EF
:100308000022C5E90032BDE8F0878B4205D90DB15E
:10031800C5E9000100210846F5E7B3FA83F1002991
:1003280046D1A34202D39042C0F0F080861A64EB13
:1003380003030120002DE6D0C5E90063E3E7002AA6
:1003480040F09080A1EB0C044FEA1C481FFA8CF790
:100358000121B4FBF8F64FEA1E4308FB164443EAB2
:10036800044307FB06F0984208D91CEB030306F187
:10037800FF3402D2984200F2CD8026461C1A1FFA9A
:100388008EF3B4FBF8F008FB104443EA044300FB87
:1003980007F79F4208D91CEB030300F1FF3402D290
:1003A8009F4200F2B0802046DB1B40EA0640A5E7EA
:1003B800C1F120068B4022FA06F71F4320FA06FCFB
:1003C80004FA01F343EA0C03F44000FA01F8380C8C
:1003D8004FEA1349B4FBF0FE1FFA87FC00FB1E44EA
:1003E80049EA04440EFB0CF9A14502FA01F20AD9C4
:1003F8003C190EF1FF3A80F08480A14540F28180DB
:10040800AEF1020E3C44A4EB09041FFA83F9B4FBD5
:10041800F0F300FB134449EA044403FB0CFCA44535
:1004280007D93C1903F1FF3067D2A44565D9023BCF
:100438003C4443EA0E40A0FB0293A4EB0C049C420C
:10044800CE469C4651D34ED055B1B8EB0E0364EB63
:100458000C0404FA06F6CB401E43CC40C5E9006400
:10046800002150E7C2F1200320FA03F10CFA02FC44
:1004780024FA03F394400C434FEA1C4800FA02FEA6
:100488001FFA8CF7B3FBF8F008FB1031230C43EA92
:10049800014300FB07F1994208D91CEB030300F163
:1004A800FF362CD299422AD9023863445B1AA4B287
:1004B800B3FBF8F108FB113344EA034401FB07F3EB
:1004C800A34208D91CEB040401F1FF3613D2A3425E
:1004D80011D902396444E41A41EA004139E7044673
:1004E800F0E6084606E7C845AED2B9EB020E63EB64
:1004F800070C0138A8E73146EDE7034699E730468F
:10050800D4E7D6467FE7634402384DE706462346DC
:1005180008460FE7023E634430E700BF704700BF5C
:1005280080B582B000AF7860391D4FF6FF730122A5
:10053800034801F005FF7B6818460837BD4680BDB3
:100548008400002080B500AF00F0A9FA00F01EF882
:1005580000F0A8F800F076F88021094800F0CBFDFB
:10056800084802F00FFD084802F00CFD80210448FD
:1005780000F0C1FD642000F0EFFA00BFF3E700BF10
:1005880000040240CC360008EC36000880B594B070
:1005980000AF07F11C0334220021184602F0D2FDF7
:1005A80007F1080300221A605A609A60DA601A613B
:1005B800224B1B6C214A43F0805313641F4B1B6C66
:1005C80003F080537B607B681D4B1B6823F440431A
:1005D8001B4A43F480431360194B1B6803F44043E0
:1005E8003B603B680223FB610123BB621023FB6273
:1005F80000237B6307F11C03184600F097FD0346B0
:10060800002B01D000F0B0F80F23BB600023FB6083
:1006180000233B6100237B610023BB6107F10803D2
:100628000021184601F030F80346002B01D000F0F5
:100638009BF800BF5037BD4680BD00BF0038024060
:100648000070004080B500AF144B154A1A60134B78
:100658004FF4E1325A60114B00229A600F4B00228E
:10066800DA600E4B00221A610C4B0C225A610B4BBC
:1006780000229A61094B0022DA61084B00221A62B3
:10068800064B00225A62054801F00CFE0346002B77
:1006980001D000F069F800BF80BD00BF84000020D1
:1006A8000048004080B588B000AF07F10C03002275
:1006B8001A605A609A60DA601A61284B1B6B274AE5
:1006C80043F001031363254B1B6B03F00103BB606D
:1006D800BB68224B1B6B214A43F0020313631F4B79
:1006E8001B6B03F002037B607B681C4B1B6B1B4A74
:1006F80043F008031363194B1B6B03F008033B60BB
:100708003B6800222021164800F0DCFC00224FF450
:100718008141144800F0D6FC2023FB6001233B6193
:1007280000237B610023BB6107F10C0319460C48C9
:1007380000F01CFB4FF48143FB6001233B61002365
:100748007B610023BB6107F10C031946054800F0E3
:100758000DFB00BF2037BD4680BD00BF00380240FA
:10076800000002400004024080B400AF72B600BF2F
:1007780000BFFDE780B483B000AF0F4B1B6C0E4A7F
:1007880043F0805313640C4B1B6C03F080537B6065
:100798007B68094B5B6C084A43F480435364064BFF
:1007A8005B6C03F480433B603B6800BF0C37BD467D
:1007B8005DF8047B704700BF0038024080B5AEB0DA
:1007C80000AF786007F1A40300221A605A609A60AB
:1007D800DA601A6107F1140390220021184602F02A
:1007E800B1FC7B681B68224A93423CD14FF480736A
:1007F8007B6100233B6607F11403184601F02AF9D0
:100808000346002B01D0FFF7AFFF1A4B1B6C194AA8
:1008180043F480231364174B1B6C03F480233B6160
:100828003B69144B1B6B134A43F008031363114BCA
:100838001B6B03F00803FB60FB684FF44073C7F8B9
:10084800A4300223C7F8A8300023C7F8AC3003232C
:10085800C7F8B0300723C7F8B43007F1A403194626
:10086800054800F083FA00BFB837BD4680BD00BF19
:100878000048004000380240000C024080B400AF3D
:1008880000BFFDE780B400AF00BFFDE780B400AF54
:1008980000BFFDE780B400AF00BFFDE780B400AF44
:1008A80000BFFDE780B400AF00BFBD465DF8047B24
:1008B800704780B400AF00BFBD465DF8047B704749
:1008C80080B400AF00BFBD465DF8047B704780B5BB
:1008D80000AF00F021F900BF80BD80B586B000AF41
:1008E800F860B9607A6000237B610AE0AFF30080AA
:1008F8000146BB685A1CBA60CAB21A707B690133D8
:100908007B617A697B689A42F0DB7B681846183706
:10091800BD4680BD80B586B000AFF860B9607A602A
:1009280000237B6109E0BB685A1CBA601B78184633
:10093800FFF7F6FD7B6901337B617A697B689A4230
:10094800F1DB7B6818461837BD4680BD80B483B09C
:1009580000AF78604FF0FF3318460C37BD465DF89E
:10096800047B704780B483B000AF786039603B681F
:100978004FF400525A60002318460C37BD465DF804
:10098800047B704780B483B000AF786001231846B9
:100998000C37BD465DF8047B704780B485B000AF66
:1009A800F860B9607A60002318461437BD465DF8D0
:1009B800047B704780B586B000AF7860144A154B49
:1009C800D31A7B617B693B61134B1B68002B02D1F7
:1009D800114B124A1A60104B1A687B6813443A6923
:1009E8009A4207D202F0FCFB03460C221A604FF031
:1009F800FF3309E0084B1B68FB60074B1A687B68EC
:100A08001344054A1360FB6818461837BD4680BD75
:100A180000000820000400000C01002060020020F3
:100A280080B400AF074BD3F88830064A43F470030C
:100A3800C2F88830034B044A9A6000BFBD465DF88F
:100A4800047B704700ED00E000000408DFF834D0B4
:100A5800FFF7E6FF0C480D490D4A002302E0D45881
:100A6800C4500433C4188C42F9D30A4A0A4C0023F0
:100A780001E013600432A242FBD302F0B7FBFFF798
:100A880061FD704700000820000000206800002079
:100A9800243700086800002060020020FEE780B5C7
:100AA80000AF032000F02EF90F2000F005F8FFF743
:100AB80061FE0023184680BD80B582B000AF786023
:100AC800124B1A68124B1B7819464FF47A73B3FB12
:100AD800F1F3B2FBF3F3184600F03BF90346002BA1
:100AE80001D001230EE07B680F2B0AD80022796819
:100AF8004FF0FF3000F011F9064A7B6813600023BD
:100B080000E0012318460837BD4680BD00000020DC
:100B1800080000200400002080B400AF064B1B78BA
:100B28001A46064B1B681344044A136000BFBD46AF
:100B38005DF8047B704700BF08000020100100200A
:100B480080B400AF034B1B681846BD465DF8047BB4
:100B5800704700BF1001002080B584B000AF7860F6
:100B6800FFF7EEFFB8607B68FB60FB68B3F1FF3FFF
:100B780005D00A4B1B781A46FB681344FB6000BF7C
:100B8800FFF7DEFF0246BB68D31AFA689A42F7D825
:100B980000BF00BF1037BD4680BD00BF0800002061
:100BA80080B485B000AF78607B6803F00703FB6012
:100BB8000B4BDB68BB60BA684FF6FF031340BB60A2
:100BC800FB681A02BB681A43064B1343BB60044A0E
:100BD800BB68D36000BF1437BD465DF8047B70471F
:100BE80000ED00E00000FA0580B400AF044BDB68BC
:100BF8001B0A03F007031846BD465DF8047B7047DF
:100C080000ED00E080B483B000AF03463960FB71AB
:100C180097F90730002B0ADB3B68DAB20C4997F9E1
:100C280007301201D2B20B4483F800230AE03B6874
:100C3800DAB20849FB7903F00F03043B1201D2B280
:100C48000B441A7600BF0C37BD465DF8047B70472D
:100C580000E100E000ED00E080B489B000AFF8608A
:100C6800B9607A60FB6803F00703FB61FB69C3F1B5
:100C78000703042B28BF0423BB61FB690433062B3D
:100C880002D9FB69033B00E000237B614FF0FF3290
:100C9800BB6902FA03F3DA43BB681A407B699A40DE
:100CA8004FF0FF317B6901FA03F3D9437B680B40AE
:100CB800134318462437BD465DF8047B704700008F
:100CC80080B582B000AF78607B68013BB3F1807F6C
:100CD80001D301230FE00A4A7B68013B53600F21CF
:100CE8004FF0FF30FFF78EFF054B00229A60044B50
:100CF80007221A60002318460837BD4680BD00BF8A
:100D080010E000E080B582B000AF78607868FFF747
:100D180047FF00BF0837BD4680BD80B586B000AF2D
:100D28000346B9607A60FB7300237B61FFF75CFFC1
:100D380078617A68B9687869FFF78EFF024697F993
:100D48000F3011461846FFF75DFF00BF1837BD4644
:100D580080BD80B582B000AF78607868FFF7B0FFDB
:100D6800034618460837BD4680BD000080B489B0E8
:100D780000AF786039600023FB6100237B610023AA
:100D88003B610023BB610023FB6175E10122FB6924
:100D980002FA03F37B613B681B687A6913403B6185
:100DA8003A697B699A4240F064813B685B6803F06A
:100DB8000303012B05D03B685B6803F00303022B98
:100DC80030D17B689B68BB61FB695B00032202FA38
:100DD80003F3DB43BA691340BB613B68DA68FB691C
:100DE8005B0002FA03F3BA691343BB617B68BA6913
:100DF8009A607B685B68BB610122FB6902FA03F3B6
:100E0800DB43BA691340BB613B685B681B0903F0AD
:100E18000102FB6902FA03F3BA691343BB617B68F9
:100E2800BA695A603B685B6803F00303032B17D069
:100E38007B68DB68BB61FB695B00032202FA03F392
:100E4800DB43BA691340BB613B689A68FB695B0086
:100E580002FA03F3BA691343BB617B68BA69DA60C3
:100E68003B685B6803F00303022B23D1FB69DA08B4
:100E78007B68083253F82230BB61FB6903F0070333
:100E88009B000F2202FA03F3DB43BA691340BB61EC
:100E98003B681A69FB6903F007039B0002FA03F336
:100EA800BA691343BB61FB69DA087B680832B96920
:100EB80043F822107B681B68BB61FB695B00032257
:100EC80002FA03F3DB43BA691340BB613B685B6812
:100ED80003F00302FB695B0002FA03F3BA691343E8
:100EE800BB617B68BA691A603B685B6803F440338E
:100EF800002B00F0BE80664B5B6C654A43F4804370
:100F08005364634B5B6C03F48043FB60FB68614A8A
:100F1800FB699B08023352F82330BB61FB6903F07D
:100F280003039B000F2202FA03F3DB43BA69134061
:100F3800BB617B68584A934237D07B68574A9342D3
:100F480031D07B68564A93422BD07B68554A9342EE
:100F580025D07B68544A93421FD07B68534A9342FA
:100F680019D07B68524A934213D07B68514A934206
:100F78000DD07B68504A934207D07B684F4A934212
:100F880001D1092312E00A2310E008230EE0072309
:100F98000CE006230AE0052308E0042306E0032307
:100FA80004E0022302E0012300E00023FA6902F0D2
:100FB800030292009340BA691343BB613549FB6948
:100FC8009B080233BA6941F823203D4B9B68BB61FB
:100FD8003B69DB43BA691340BB613B685B6803F458
:100FE8008013002B03D0BA693B691343BB61344AB1
:100FF800BB699360324BDB68BB613B69DB43BA6911
:101008001340BB613B685B6803F40013002B03D0FB
:10101800BA693B691343BB61294ABB69D360284B52
:101028005B68BB613B69DB43BA691340BB613B68E2
:101038005B6803F40033002B03D0BA693B691343A0
:10104800BB611F4ABB6953601D4B1B68BB613B6991
:10105800DB43BA691340BB613B685B6803F48033C8
:10106800002B03D0BA693B691343BB61144ABB69BF
:101078001360FB690133FB61FB690F2B7FF686AEBA
:1010880000BF00BF2437BD465DF8047B704700BF32
:1010980000380240003801400000024000040240CD
:1010A80000080240000C02400010024000140240F8
:1010B80000180240001C02400020024000240240A8
:1010C800003C014080B483B000AF78600B467B8061
:1010D80013467B707B78002B03D07A887B689A61F3
:1010E80003E07B881A047B689A6100BF0C37BD4611
:1010F8005DF8047B704780B485B000AF78600B461C
:101108007B807B685B69FB607A88FB6813401A0404
:10111800FB68D9437B880B401A437B689A6100BF00
:101128001437BD465DF8047B7047000080B586B073
:1011380000AF78600023FB757B68002B01D1012389
:101148009BE27B681B6803F00103002B00F087809B
:10115800964B9B6803F00C03042B0CD0934B9B68B5
:1011680003F00C03082B12D1904B5B6803F4800347
:10117800B3F5800F0BD18D4B1B6803F40033002BA4
:101188006CD07B685B68002B68D1012375E27B68B3
:101198005B68B3F5803F06D1844B1B68834A43F4F0
:1011A800803313602EE07B685B68002B0CD17F4B8B
:1011B8001B687E4A23F4803313607C4B1B687B4A90
:1011C80023F4802313601DE07B685B68B3F5A02FD0
:1011D8000CD1764B1B68754A43F480231360734B1C
:1011E8001B68724A43F4803313600BE06F4B1B6833
:1011F8006E4A23F4803313606C4B1B686B4A23F4EC
:10120800802313607B685B68002B13D0FFF798FC82
:10121800386108E0FFF794FC02463B69D31A642B57
:1012280001D9032329E2614B1B6803F40033002B27
:10123800F0D014E0FFF784FC386108E0FFF780FC89
:1012480002463B69D31A642B01D9032315E2574B95
:101258001B6803F40033002BF0D100E000BF7B686B
:101268001B6803F00203002B69D0504B9B6803F006
:101278000C03002B0BD04D4B9B6803F00C03082B81
:101288001CD14A4B5B6803F48003002B16D1474BF3
:101298001B6803F00203002B05D07B68DB68012B79
:1012A80001D00123E9E1414B1B6823F0F8027B6878
:1012B8001B69DB003D4913430B6040E07B68DB683A
:1012C800002B23D0394B1B68384A43F001031360C5
:1012D800FFF736FC386108E0FFF732FC02463B694D
:1012E800D31A022B01D90323C7E1304B1B6803F043
:1012F8000203002BF0D02D4B1B6823F0F8027B680B
:101308001B69DB00294913430B6018E0274B1B6856
:10131800264A23F001031360FFF712FC386108E046
:10132800FFF70EFC02463B69D31A022B01D90323AF
:10133800A3E11E4B1B6803F00203002BF0D17B686E
:101348001B6803F00803002B38D07B685B69002B0F
:1013580019D0164B5B6F154A43F001035367FFF72B
:10136800EFFB386108E0FFF7EBFB02463B69D31A55
:10137800022B01D9032380E10C4B5B6F03F00203BE
:10138800002BF0D01AE0094B5B6F084A23F00103E9
:101398005367FFF7D5FB38610AE0FFF7D1FB024638
:1013A8003B69D31A022B03D9032366E100380240B4
:1013B800924B5B6F03F00203002BEED17B681B6836
:1013C80003F00403002B00F0A4808C4B1B6C03F08B
:1013D8008053002B0DD1894B1B6C884A43F08053F6
:1013E8001364864B1B6C03F08053BB60BB680123FE
:1013F800FB75834B1B6803F48073002B18D1804B5B
:101408001B687F4A43F480731360FFF799FB3861C8
:1014180008E0FFF795FB02463B69D31A642B01D914
:1014280003232AE1764B1B6803F48073002BF0D06A
:101438007B689B68012B06D1704B1B6F6F4A43F08A
:10144800010313672DE07B689B68002B0CD16B4B65
:101458001B6F6A4A23F001031367684B1B6F674AC7
:1014680023F0040313671CE07B689B68052B0CD1F1
:10147800624B1B6F614A43F0040313675F4B1B6F9A
:101488005E4A43F0010313670BE05C4B1B6F5B4A3A
:1014980023F001031367594B1B6F584A23F00403C9
:1014A80013677B689B68002B15D0FFF749FB3861F1
:1014B8000AE0FFF745FB02463B69D31A41F288323E
:1014C800934201D90323D8E04C4B1B6F03F002036E
:1014D800002BEED014E0FFF733FB38610AE0FFF78A
:1014E8002FFB02463B69D31A41F28832934201D955
:1014F8000323C2E0414B1B6F03F00203002BEED124
:10150800FB7D012B05D13D4B1B6C3C4A23F08053DE
:1015180013647B689B69002B00F0AE80374B9B6897
:1015280003F00C03082B6DD07B689B69022B4BD111
:10153800324B1B68314A23F080731360FFF700FBBE
:10154800386108E0FFF7FCFA02463B69D31A022B20
:1015580001D9032391E0294B1B6803F00073002B8A
:10156800F0D17B68DA697B681B6A1A437B685B6A1F
:101578009B011A437B689B6A5B08013B1B041A4367
:101588007B68DB6A1B061A437B681B6B1B071B49BE
:1015980013434B60194B1B68184A43F08073136060
:1015A800FFF7CEFA386108E0FFF7CAFA02463B694E
:1015B800D31A022B01D903235FE0104B1B6803F0F9
:1015C8000073002BF0D057E00C4B1B680B4A23F03C
:1015D80080731360FFF7B4FA386108E0FFF7B0FAD8
:1015E80002463B69D31A022B01D9032345E0034B7A
:1015F8001B6803F00073002BF0D13DE00038024077
:10160800007000401F4B5B68FB607B689B69012B87
:1016180030D0FB6803F480027B68DB699A4229D1E9
:10162800FB6803F03F027B681B6A9A4222D1FA6882
:1016380047F6C07313407A68526A9201934219D1EF
:10164800FB6803F440327B689B6A5B08013B1B0420
:101658009A420FD1FB6803F070627B68DB6A1B0655
:101668009A4207D1FB6803F0E0427B681B6B1B07BB
:101678009A4201D0012300E0002318461837BD46DE
:1016880080BD00BF0038024080B584B000AF7860EC
:1016980039600023FB607B68002B01D10123D0E077
:1016A8006A4B1B6803F00F033A689A4210D9674BDC
:1016B8001B6823F00F0265493B6813430B60634BBB
:1016C8001B6803F00F033A689A4201D00123B8E07F
:1016D8007B681B6803F00203002B20D07B681B6823
:1016E80003F00403002B05D0594B9B68584A43F478
:1016F800E05393607B681B6803F00803002B05D058
:10170800534B9B68524A43F460439360504B9B6829
:1017180023F0F0027B689B684D4913438B607B681C
:101728001B6803F00103002B40D07B685B68012B2A
:1017380007D1474B1B6803F40033002B15D1012355
:101748007FE07B685B68022B07D1414B1B6803F085
:101758000073002B09D1012373E03D4B1B6803F094
:101768000203002B01D101236BE0394B9B6823F066
:1017780003027B685B68364913438B60FFF7E0F927
:10178800F8600AE0FFF7DCF90246FB68D31A41F279
:101798008832934201D9032353E02D4B9B6803F011
:1017A8000C027B685B689B009A42EBD1274B1B6855
:1017B80003F00F033A689A4210D2244B1B6823F0B7
:1017C8000F0222493B6813430B60204B1B6803F050
:1017D8000F033A689A4201D0012332E07B681B6804
:1017E80003F00403002B08D0194B9B6823F4E05244
:1017F8007B68DB68164913438B607B681B6803F0C2
:101808000803002B09D0124B9B6823F460427B68C5
:101818001B69DB000E4913438B6000F021F8024678
:101828000B4B9B681B0903F00F030A49CB5C22FA98
:1018380003F3094A1360094B1B681846FFF73CF984
:10184800002318461037BD4680BD00BF003C02404B
:1018580000380240FC360008000000200400002088
:101868002DE9B04F90B000AF00237B630023FB63EA
:1018780000233B630023BB63594B9B6803F00C03B5
:10188800082B0DD0082B00F2A180002B02D0042BCE
:1018980003D09BE0534BBB639BE0534BBB6398E087
:1018A8004F4B5B6803F03F037B634D4B5B6803F46E
:1018B8008003002B28D04A4B5B689B0900223B62BF
:1018C8007A623B6AC3F308000021474B03FB01F22D
:1018D800002300FB03F31344434AA0FB0212FA62FD
:1018E8000A46BA62FA6A1344FB627B6B0022BB6148
:1018F800FA61D7E90623D7E90A01FEF799FC0246FF
:101908000B461346FB6353E0354B5B689B0900228B
:101918003B617A613B69C3F3080A4FF0000B5246FA
:101928005B464FF000004FF00001590141EAD261D7
:10193800500102460B46B2EB0A0863EB0B094FF065
:1019480000024FF000034FEA891343EA98634FEA15
:101958008812B2EB080463EB09054FF000024FF060
:101968000003EB0043EA5473E20014461D4614EBEF
:101978000A033B6045EB0B037B604FF000024FF01E
:101988000003D7E9004529468B02214643EA9153D3
:1019980021468A02104619467B6B0022BB60FA601A
:1019A800D7E90223FEF744FC02460B461346FB63C5
:1019B8000B4B5B681B0C03F0030301335B003B63B9
:1019C800FA6B3B6BB2FBF3F3BB6302E0054BBB6303
:1019D80000BFBB6B18464037BD46BDE8B08F00BF9F
:1019E800003802400024F40040787D0180B400AF44
:1019F800034B1B681846BD465DF8047B704700BF63
:101A08000000002080B500AFFFF7F0FF0246054B4D
:101A18009B689B0A03F007030349CB5C22FA03F394
:101A2800184680BD003802400C37000880B500AF6A
:101A3800FFF7DCFF0246054B9B685B0B03F00703CF
:101A48000349CB5C22FA03F3184680BD00380240F4
:101A58000C37000880B588B000AF786000237B6140
:101A680000233B610023FB600023FB610023BB6173
:101A78007B681B6803F00103002B12D0694B9B683D
:101A8800684A23F400039360664B9A687B685B6B33
:101A9800644913438B607B685B6B002B01D1012386
:101AA800FB617B681B6803F40023002B17D05D4B98
:101AB800D3F88C3023F440127B68DB6B594913430D
:101AC800C1F88C307B68DB6BB3F5801F01D1012333
:101AD800FB617B68DB6B002B01D10123BB617B6859
:101AE8001B6803F48013002B17D04E4BD3F88C30AF
:101AF80023F440027B681B6C4A491343C1F88C30BD
:101B08007B681B6CB3F5800F01D10123FB617B68F7
:101B18001B6C002B01D10123BB617B681B6803F0A0
:101B28008073002B01D00123FB617B681B6803F0E5
:101B38002003002B00F08B803A4B1B6C394A43F092
:101B480080531364374B1B6C03F08053BB60BB6836
:101B5800354B1B68344A43F480731360FEF7F0FF7B
:101B6800786108E0FEF7ECFF02467B69D31A642B24
:101B780001D903238FE32C4B1B6803F48073002BDC
:101B8800F0D0284B1B6F03F440733B613B69002B7B
:101B980035D07B681B6B03F440733A699A422ED0A8
:101BA800204B1B6F23F440733B611E4B1B6F1D4A78
:101BB80043F4803313671B4B1B6F1A4A23F480339B
:101BC8001367184A3B691367164B1B6F03F0010331
:101BD800012B14D1FEF7B4FF78610AE0FEF7B0FFDD
:101BE80002467B69D31A41F28832934201D9032312
:101BF80051E30C4B1B6F03F00203002BEED07B6804
:101C08001B6B03F44073B3F5407F11D1054B9B6800
:101C180023F4F8127B68196B044B0B4001491343FA
:101C28008B600BE00038024000700040FFFCFF0FA3
:101C3800AC4B9B68AB4A23F4F8139360A94B1A6F1B
:101C48007B681B6BC3F30B03A64913430B677B68C5
:101C58001B6803F01003002B10D0A24BD3F88C3074
:101C6800A04A23F08073C2F88C309E4BD3F88C20A6
:101C78007B689B6B9B491343C1F88C307B681B685E
:101C880003F48043002B0AD0964BD3F8903023F40A
:101C980040327B685B6E93491343C1F890307B6890
:101CA8001B6803F40043002B0AD08E4BD3F8903006
:101CB80023F440227B689B6E8A491343C1F8903015
:101CC8007B681B6803F48033002B0AD0854BD3F85C
:101CD800903023F440127B68DB6E82491343C1F8CD
:101CE80090307B681B6803F40033002B0AD07D4BCF
:101CF800D3F8903023F440027B681B6F7949134373
:101D0800C1F890307B681B6803F04003002B0AD0B1
:101D1800744BD3F8903023F003027B685B6C7149F5
:101D28001343C1F890307B681B6803F08003002BD5
:101D38000AD06C4BD3F8903023F00C027B689B6C74
:101D480068491343C1F890307B681B6803F48073BB
:101D5800002B0AD0634BD3F8903023F030027B6815
:101D6800DB6C60491343C1F890307B681B6803F44F
:101D78000073002B0AD05B4BD3F8903023F0C002DD
:101D88007B681B6D57491343C1F890307B681B680B
:101D980003F48063002B0AD0524BD3F8903023F41D
:101DA80040727B685B6D4F491343C1F890307B6884
:101DB8001B6803F40063002B0AD04A4BD3F8903019
:101DC80023F440627B689B6D46491343C1F8903009
:101DD8007B681B6803F48053002B0AD0414BD3F86F
:101DE800903023F440527B68DB6D3E491343C1F8C1
:101DF80090307B681B6803F40053002B0AD0394BE2
:101E0800D3F8903023F440427B681B6E3549134366
:101E1800C1F890307B681B6803F48003002B0AD05C
:101E2800304BD3F8903023F080627B689B6F2D494C
:101E38001343C1F890307B681B6803F40013002B30
:101E480011D0284BD3F8903023F000627B68DB6F09
:101E580024491343C1F890307B68DB6FB3F1006FFE
:101E680001D10123BB617B681B6803F00803002BC9
:101E780001D00123BB617B681B6803F48023002B1E
:101E88000AD0184BD3F8903023F040727B685B6F10
:101E980014491343C1F890307B681B6803F40003AE
:101EA800002B0BD00F4BD3F8903023F080527B6877
:101EB800D3F880300B491343C1F890307B681B6816
:101EC80003F08063002B0FD0064BD3F8903023F03B
:101ED80000527B68D3F8843002491343C1F890302C
:101EE80002E000BF003802407B681B6803F0006313
:101EF800002B0BD08A4BD3F88C3023F000727B6810
:101F0800D3F8883086491343C1F88C307B681B6846
:101F180003F08053002B0BD0814BD3F88C3023F087
:101F280080627B68D3F88C307D491343C1F88C30CC
:101F3800FB69012B06D07B681B6803F00073002B3C
:101F480000F0D680764B1B68754A23F080631360D7
:101F5800FEF7F6FD786108E0FEF7F2FD02467B69C0
:101F6800D31A642B01D9032395E16D4B1B6803F049
:101F78000063002BF0D17B681B6803F00103002B82
:101F880021D07B685B6B002B1DD1654BD3F8843067
:101F98001B0C03F003033B61614BD3F884301B0E29
:101FA80003F00F03FB607B685B689A013B691B04C5
:101FB8001A43FB681B061A437B689B681B07584932
:101FC8001343C1F884307B681B6803F40023002B9B
:101FD80004D07B68DB6BB3F5801F0AD07B681B6875
:101FE80003F48013002B2ED07B681B6CB3F5800F95
:101FF80029D14B4BD3F884301B0C03F003033B610E
:10200800474BD3F884301B0F03F00703FB607B6852
:102018005B689A013B691B041A437B68DB681B06F3
:102028001A43FB681B073E491343C1F884303C4BF5
:10203800D3F88C3023F01F027B685B6A013B384978
:102048001343C1F88C307B681B6803F08073002B46
:102058001DD0334BD3F884301B0E03F00F033B61C4
:102068002F4BD3F884301B0F03F00703FB607B680A
:102078005B689A017B681B691B041A433B691B0652
:102088001A43FB681B0726491343C1F884307B6851
:102098001B6803F00073002B11D07B685B689A0102
:1020A8007B681B691B041A437B68DB681B061A43A1
:1020B8007B689B681B071A491343C1F88430184B87
:1020C8001B68174A43F080631360FEF739FD786197
:1020D80008E0FEF735FD02467B69D31A642B01D967
:1020E8000323D8E00E4B1B6803F00063002BF0D0ED
:1020F800BB69012B40F0CE80094B1B68084A23F0CE
:1021080080531360FEF71CFD78610BE0FEF718FDA5
:1021180002467B69D31A642B04D90323BBE000BFB2
:10212800003802405E4B1B6803F00053B3F1005FB8
:10213800ECD07B681B6803F40023002B03D07B687A
:10214800DB6B002B09D07B681B6803F48013002B22
:102158002ED07B681B6C002B2AD1514BD3F88830CA
:102168001B0C03F003033B614D4BD3F888301B0F66
:1021780003F00703FB607B685B699A013B691B04FA
:102188001A437B689B691B061A43FB681B07444973
:102198001343C1F88830424BD3F88C3023F4F852FB
:1021A8007B689B6A013B1B023D491343C1F88C3095
:1021B8007B681B6803F40013002B22D07B68DB6F5D
:1021C800B3F1006F1DD1364BD3F888301B0E03F0E6
:1021D8000F033B61324BD3F888301B0F03F0070322
:1021E800FB607B685B699A017B681B6A1B041A4366
:1021F8003B691B061A43FB681B0729491343C1F8AF
:1022080088307B681B6803F00803002B28D0244B18
:10221800D3F888301B0E03F00F033B61204BD3F833
:1022280088301B0C03F00303FB607B685B699A0131
:10223800FB681B041A433B691B061A437B68DB696E
:102248001B0717491343C1F88830154BD3F88C3056
:1022580023F440327B68DB6A11491343C1F88C30A0
:102268000F4B1B680E4A43F080531360FEF768FC5F
:10227800786108E0FEF764FC02467B69D31A642B98
:1022880001D9032307E0064B1B6803F00053B3F1A1
:10229800005FEFD1002318462037BD4680BD00BF40
:1022A8000038024080B582B000AF78607B68002BB0
:1022B80001D1012340E07B68DB6F002B06D17B68EE
:1022C800002283F878207868FEF778FA7B68242261
:1022D800DA677B681B681A687B681B6822F0010252
:1022E8001A607B685B6A002B02D0786800F016FBE6
:1022F800786800F0AFF80346012B01D101231BE0F9
:102308007B681B685A687B681B6822F490425A6095
:102318007B681B689A687B681B6822F02A029A60AF
:102328007B681B681A687B681B6842F001021A60A8
:10233800786800F095FB034618460837BD4680BD0F
:1023480080B58AB002AFF860B9603B601346FB8085
:10235800FB68DB6F202B77D1BB68002B02D0FB8892
:10236800002B01D1012370E0FB680022C3F8842010
:10237800FB682122DA67FEF7E3FB7861FB68FA88DD
:10238800A3F85020FB68FA88A3F85220FB689B68E2
:10239800B3F5805F08D1FB681B69002B04D10023CB
:1023A800FB61BB68BB6103E0BB68FB610023BB61E9
:1023B8002FE03B6800937B6900228021F86800F0D9
:1023C800F7FB0346002B04D0FB682022DA670323BF
:1023D8003BE0FB69002B0BD1BB691B881A46FB68E5
:1023E8001B68C2F308029A62BB690233BB6107E04B
:1023F800FB691A78FB681B689A62FB690133FB6109
:10240800FB68B3F852309BB2013B9AB2FB68A3F861
:102418005220FB68B3F852309BB2002BC9D13B68FD
:1024280000937B6900224021F86800F0C1FB034655
:10243800002B04D0FB682022DA67032305E0FB6841
:102448002022DA67002300E0022318462037BD4621
:1024580080BD000080B588B000AF78600023BB77EE
:102468007B689A687B681B691A437B685B691A43B7
:102478007B68DB6913437B617B681B681A68A64B22
:1024880013407A68126879690B4313607B681B688C
:102498005B6823F440517B68DA687B681B680A43F1
:1024A8005A607B689B697B617B681B6A7A69134306
:1024B8007B617B681B689B6823F430617B681B68C1
:1024C8007A690A439A607B681B68944A934220D1D0
:1024D800934BD3F8903003F00303032B16D801A2D3
:1024E80052F823F0FD2400080925000803250008F8
:1024F8000F2500080123FB7750E10223FB774DE10C
:102508000423FB774AE10823FB7747E11023FB7795
:1025180044E17B681B68834A934232D1804BD3F8ED
:10252800903003F00C030C2B28D801A252F823F0AA
:102538006D250008852500088525000885250008E3
:1025480079250008852500088525000885250008C7
:1025580073250008852500088525000885250008BD
:102568007F2500080023FB7718E10223FB7715E19C
:102578000423FB7712E10823FB770FE11023FB7795
:102588000CE17B681B68684A934220D1644BD3F8FE
:10259800903003F03003302B13D0302B14D8202B7D
:1025A80009D0202B10D8002B02D0102B06D00BE01E
:1025B8000023FB77F2E00223FB77EFE00423FB77AD
:1025C800ECE00823FB77E9E01023FB77E6E07B6883
:1025D8001B68564A934220D1514BD3F8903003F0F0
:1025E800C003C02B13D0C02B14D8802B09D0802B4C
:1025F80010D8002B02D0402B06D00BE00023FB772D
:10260800CCE00223FB77C9E00423FB77C6E008236C
:10261800FB77C3E01023FB77C0E07B681B68444A64
:10262800934225D13E4BD3F8903003F44073B3F571
:10263800407F17D0B3F5407F17D8B3F5007F0BD094
:10264800B3F5007F11D8002B03D0B3F5807F06D0F7
:102658000BE00023FB77A1E00223FB779EE0042335
:10266800FB779BE00823FB7798E01023FB7795E046
:102678007B681B682F4A934225D1294BD3F89030A9
:1026880003F44063B3F5406F17D0B3F5406F17D824
:10269800B3F5006F0BD0B3F5006F11D8002B03D042
:1026A800B3F5806F06D00BE00123FB7776E00223B9
:1026B800FB7773E00423FB7770E00823FB776DE07A
:1026C8001023FB776AE07B681B681B4A934238D16A
:1026D800134BD3F8903003F44053B3F5405F17D051
:1026E800B3F5405F2AD8B3F5005F0BD0B3F5005FB0
:1026F80024D8002B03D0B3F5805F06D01EE000235A
:10270800FB774BE00223FB7748E00423FB7745E0A7
:102718000823FB7742E000BFF369FFEF0010014098
:10272800003802400044004000480040004C00408F
:102738000050004000140140007800401023FB774F
:102748002CE07B681B68724A934225D1714BD3F801
:10275800903003F44043B3F5404F17D0B3F5404FE2
:1027680017D8B3F5004F0BD0B3F5004F11D8002B95
:1027780003D0B3F5804F06D00BE00023FB770DE0C4
:102788000223FB770AE00423FB7707E00823FB77A3
:1027980004E01023FB7701E01023FB777B68DB69FB
:1027A800B3F5004F5BD1FB7F082B28D801A252F864
:1027B80023F000BFE1270008E9270008F1270008F7
:1027C80007280008F7270008072800080728000836
:1027D80007280008FF270008FFF714F9B86113E07D
:1027E800FFF724F9B8610FE04B4BBB610CE0FFF732
:1027F80037F8B86108E04FF40043BB6104E00023F8
:10280800BB610123BB7700BFBB69002B74D0BB69D8
:102818005A007B685B685B081A447B685B68B2FB9C
:10282800F3F33B613B690F2B16D93B69B3F5803F46
:1028380012D23B699BB223F00F03FB813B695B0813
:102848009BB203F007039AB2FB891343FB817B68B1
:102858001B68FA89DA604FE00123BB774CE0FB7F05
:10286800082B28D801A252F823F000BF99280008A5
:10287800A1280008A9280008BF280008AF280008D8
:10288800BF280008BF280008BF280008B72800088C
:10289800FFF7B8F8B86113E0FFF7C8F8B8610FE0C0
:1028A8001D4BBB610CE0FEF7DBFFB86108E04FF49D
:1028B8000043BB6104E00023BB610123BB7700BF79
:1028C800BB69002B18D07B685B685A08BB691A443F
:1028D8007B685B68B2FBF3F33B613B690F2B09D95B
:1028E8003B69B3F5803F05D23B699AB27B681B68A8
:1028F800DA6001E00123BB777B6800229A667B6877
:102908000022DA66BB7F18462037BD4680BD00BF6F
:10291800007C0040003802400024F40080B483B0FA
:1029280000AF78607B685B6A03F00803002B0AD06D
:102938007B681B685B6823F400417B685A6B7B6883
:102948001B680A435A607B685B6A03F00103002B2B
:102958000AD07B681B685B6823F400317B689A6A3D
:102968007B681B680A435A607B685B6A03F0020352
:10297800002B0AD07B681B685B6823F480317B6876
:10298800DA6A7B681B680A435A607B685B6A03F0F3
:102998000403002B0AD07B681B685B6823F4802142
:1029A8007B681A6B7B681B680A435A607B685B6AA2
:1029B80003F01003002B0AD07B681B689B6823F484
:1029C80080517B689A6B7B681B680A439A607B68B6
:1029D8005B6A03F02003002B0AD07B681B689B68A6
:1029E80023F400517B68DA6B7B681B680A439A60A2
:1029F8007B685B6A03F04003002B1AD07B681B6876
:102A08005B6823F480117B681A6C7B681B680A4337
:102A18005A607B681B6CB3F5801F0AD17B681B6802
:102A28005B6823F4C0017B685A6C7B681B680A43A7
:102A38005A607B685B6A03F08003002B0AD07B68CE
:102A48001B685B6823F400217B689A6C7B681B68B1
:102A58000A435A6000BF0C37BD465DF8047B7047D7
:102A680080B598B002AF78607B680022C3F88420F4
:102A7800FEF766F878657B681B681B6803F0080337
:102A8800082B2ED16FF07E4300937B6D00224FF40C
:102A98000011786800F08CF80346002B21D07B6881
:102AA8001B68BB63BB6B53E8003F7B637B6B23F006
:102AB80080033B657B681B681A463B6D7B643A6400
:102AC800396C7A6C41E80023FB63FB6B002BE6D181
:102AD8007B682022DA677B68002283F8782003234A
:102AE80062E07B681B681B6803F00403042B49D170
:102AF8006FF07E4300937B6D00224FF4800178686D
:102B080000F056F80346002B3CD07B681B687B62BC
:102B18007B6A53E8003F3B623B6A23F49073FB6493
:102B28007B681B681A46FB6C3B63FA62F96A3A6B6E
:102B380041E80023BB62BB6A002BE6D17B681B68B7
:102B480008333B613B6953E8003FFB60FB6823F0B7
:102B58000103BB647B681B680833BA6CFA61BB610C
:102B6800B969FA6941E800237B617B69002BE5D1EB
:102B78007B682022C3F880207B68002283F87820B5
:102B8800032311E07B682022DA677B682022C3F8E0
:102B980080207B6800221A667B6800225A667B6860
:102BA800002283F87820002318465837BD4680BD98
:102BB80080B584B000AFF860B9603B601346FB7124
:102BC8004FE0BB69B3F1FF3F4BD0FDF7B9FF0246B9
:102BD8003B68D31ABA699A4202D3BB69002B01D168
:102BE80003234EE0FB681B681B6803F00403002BFB
:102BF80037D0BB68802B34D0BB68402B31D0FB6802
:102C08001B68DB6903F00803082B10D1FB681B68FD
:102C180008221A62F86800F038F8FB680822C3F83E
:102C28008420FB68002283F87820012329E0FB68D0
:102C38001B68DB6903F40063B3F5006F11D1FB680F
:102C48001B684FF400621A62F86800F01EF8FB680F
:102C58002022C3F88420FB68002283F8782003230D
:102C68000FE0FB681B68DA69BB681340BA689A42D0
:102C78000CBF01230023DBB21A46FB799A42A0D08D
:102C8800002318461037BD4680BD80B495B000AF0C
:102C980078607B681B687B637B6B53E8003F3B6312
:102CA8003B6B23F49073FB647B681B681A46FB6CD0
:102CB8003B64FA63F96B3A6C41E80023BB63BB6B76
:102CC800002BE6D17B681B6808333B623B6A53E8FC
:102CD800003FFB61FB6923F00103BB647B681B6851
:102CE8000833BA6CFA62BB62B96AFA6A41E800232F
:102CF8007B627B6A002BE5D17B681B6E012B18D1A8
:102D08007B681B68FB60FB6853E8003FBB60BB68DF
:102D180023F010037B647B681B681A467B6CBB61DD
:102D28007A617969BA6941E800233B613B69002B04
:102D3800E6D17B682022C3F880207B6800221A66CF
:102D48007B6800229A6600BF5437BD465DF8047B55
:102D580070470000002310B50446C0E90033C0E9FD
:102D68000433836081814366C281836119460822E6
:102D78005C3000F0E7F90D4B63620D4BA3620D4B1D
:102D8800E3620D4B23630D4B24629C4206D003F192
:102D98006802944202D0D0339C4205D104F1580015
:102DA800BDE8104000F046BA10BD00BF9D2F0008D6
:102DB800BF2F0008F72F00081B300008140100205F
:102DC800024A0349034800F069B800BF0C0000201C
:102DD8003D3500081C00002041680C4B994210B595
:102DE800044601D000F0A6FBA168094B994202D025
:102DF800204600F09FFBE168064B994204D020462C
:102E0800BDE8104000F096BB10BD00BF14010020C3
:102E18007C010020E401002010B50B4B0B4C0C4A40
:102E28001A60204600220421FFF794FF04F168008D
:102E380001220921FFF78EFF04F1D0000222BDE82C
:102E480010401221FFF786BF4C0200201401002019
:102E5800C92D0008014800F0EEB900BF5502002056
:102E6800014800F0E9B900BF5502002010B504463A
:102E7800FFF7F0FF236A1BB1BDE81040FFF7F0BF72
:102E8800044B2362044B1B68002BF5D1FFF7C4FFEA
:102E9800F2E700BFE12D00084C0200202DE9F843BD
:102EA8000746884614460026D4E90195B9F1010978
:102EB80005D52468002CF7D13046BDE8F883AB89E6
:102EC800012B07D9B5F90E30013303D0294638460E
:102ED800C04706436835E9E7036A70B58468054664
:102EE8000E460BB9FFF7C2FF636EDB0705D4A38953
:102EF800980502D4A06D00F09EF9A389190702D5A0
:102F08002369002B35D12146284600F0C5F880B347
:102F18004FF0FF35636EDA0705D4A3899B0502D409
:102F2800A06D00F089F9284670BD002B04DAA2696B
:102F38009A4217DC0A2915D023685A1C2260197096
:102F4800A36816F8011F013BA3600029EDD1002BEF
:102F580011DA22460A21284600F05FF80130D7D05E
:102F68000A25D7E72246284600F057F80130E7D16E
:102F7800CEE7013EE4E723685A1C22600A221A7051
:102F8800EEE70000024B01461868FFF7A5BF00BF37
:102F98001800002010B50C46B1F90E1000F0FCF82E
:102FA8000028ABBF636DA3891B1823F48053ACBF03
:102FB8006365A38110BD2DE9F0411F468B89DB05B0
:102FC80005460C46164605D5B1F90E100223002217
:102FD80000F0D0F8A389B4F90E1023F48053A3812C
:102FE80032463B462846BDE8F04100F0E7B810B548
:102FF8000C46B1F90E1000F0BDF8431CA38915BFAB
:10300800606523F4805343F48053A38118BFA381E0
:1030180010BDB1F90E1000F09DB8F8B50E46144673
:10302800054618B1036A0BB9FFF720FFA369A3602F
:10303800A3891A0701D5236943B92146284600F018
:103048002BF818B14FF0FF373846F8BD23682269CE
:10305800981A6369F6B28342374605DC214628464A
:1030680000F068FA0028EDD1A368013BA36023684B
:103078005A1C22601E706269431C9A4204D0A389BC
:10308800DB07E1D50A2EDFD12146284600F052FAA7
:103098000028D9D0D6E7000038B5294B054618686E
:1030A8000C4618B1036A0BB9FFF7E0FEB4F90C300F
:1030B800190722D4DA0607D409222A6043F040030C
:1030C800A3814FF0FF3033E0580712D5616B41B14F
:1030D80004F14403994202D0284600F0AFF80023D7
:1030E8006363A38923F02403A38100236360236916
:1030F8002360A38943F00803A38123694BB9A389FB
:1031080003F42073B3F5007F03D02146284600F06E
:103118005FFAB4F90C3013F001020AD00022A26061
:1031280062695242A261226942B913F08000C5D196
:1031380038BD990758BF6269A260F4E70020F7E735
:103148001800002002440346934200D1704703F858
:10315800011BF9E738B5064D0023044608462B60E5
:10316800FDF7F4FB431C02D12B6803B1236038BD83
:103178005002002038B5074D044608461146002283
:103188002A601A46FDF709FC431C02D12B6803B1DB
:10319800236038BD5002002038B5074D0446084664
:1031A800114600222A601A46FDF797FB431C02D1FC
:1031B8002B6803B1236038BD5002002038B5074D95
:1031C80004460846114600222A601A46FDF7A2FB6B
:1031D800431C02D12B6803B1236038BD5002002084
:1031E800014B1868704700BF1800002070B50D4DDE
:1031F8000D4C641BA4100026A64209D10B4D0C4CA3
:1032080000F054FA641BA4100026A64205D170BD34
:1032180055F8043B98470136EEE755F8043B9847C4
:103228000136F2E71C3700081C3700081C37000875
:1032380020370008704770477047000038B50546CA
:10324800002941D051F8043C0C1F002BB8BFE418EA
:1032580000F0E0F81D4A136833B96360146028462B
:10326800BDE8384000F0DCB8A34208D9206821182E
:103278008B4201BF19685B6809182160EDE71A469F
:103288005B680BB1A342FAD911685018A0420BD160
:1032980020680144501883421160E0D118685B68C7
:1032A800536008441060DAE702D90C232B60D6E794
:1032B800206821188B4204BF19685B68636004BFEB
:1032C800091821605460CAE738BD00BF5C020020BD
:1032D80070B50F4E0C463168054611B900F0D6F9A5
:1032E80030602146284600F0D1F9431C03D14FF045
:1032F800FF34204670BDC41C24F00304A042F8D05B
:10330800211A284600F0C2F90130F2D1EFE700BFD8
:10331800580200202DE9F843CD1C25F00305083597
:103328000C2D38BF0C25002D064601DBA94204D917
:103338000C2333600020BDE8F883DFF8D48000F068
:1033480069F8D8F800301C4644BB29463046FFF7D8
:10335800BFFF431C044658D1D8F800402746002F29
:1033680043D1002C4BD023683946304604EB03097F
:1033780000F08CF9814542D121686D1A2946304602
:10338800FFF7A6FF01303AD023682B442360D8F812
:1033980000305A6862BBC8F800700FE02268521B00
:1033A80020D40B2A17D96119A342256018BF596088
:1033B800636808BFC8F8001062514B60304600F0DF
:1033C8002FF804F10B00231D20F00700C21A1CBFC0
:1033D8001B1AA350AFE76268A3420CBFC8F80020CD
:1033E8005A60EBE723466468AEE73C467F68B6E779
:1033F8001A465B68A342FBD100235360DEE70C2327
:103408003360304600F00CF894E70560D6E700BF5B
:103418005C0200200148FFF70EBF00BF54020020E5
:103428000148FFF709BF00BF54020020B1F90C2082
:103438002DE9F041160705460C4654D44B68002B7D
:1034480002DC0B6C002B48DDE66A002E45D0002319
:1034580012F480522F68216A2B6030D0626DA389E4
:10346800590705D56368D21A636B0BB1236CD21A5E
:103478000023E66A216A2846B047431CA38906D17F
:1034880029681D292BD82A4A0A41D60727D40022A1
:103498006260D9042269226004D5421C01D12B68DC
:1034A80003B96065616B2F60B9B104F144039942B7
:1034B80002D02846FFF7C2FE002363630DE0012314
:1034C8002846B0470246501CC9D12B68002BC6D0ED
:1034D8001D2B01D0162B1ED12F60002022E043F0B7
:1034E80040031BB21BE00F69002FF6D093070E684C
:1034F80008BF4B690F6018BF0023A6EB07088B6055
:10350800B8F1000FE9DD216AA66A43463A46284623
:10351800B047002808DCB4F90C3043F04003A3811D
:103528004FF0FF30BDE8F0810744A8EB0008E7E75B
:10353800FEFFBFDF38B50B6905460C4613B90025F9
:10354800284638BD18B1036A0BB9FFF78FFCB4F9E8
:103558000C30002BF3D0626ED00704D4990502D446
:10356800A06DFFF768FE28462146FFF75FFF636EF0
:10357800DA070546E4D4A3899B05E1D4A06DFFF7DB
:103588005BFEDDE770B50C46B1F90E10002996B068
:1035980015461E460DDAA38913F0800F4FF000017F
:1035A80014BF40234FF48063002031602B6016B0B5
:1035B80070BD6A4600F048F80028ECDB019901F478
:1035C8007041A1F50053594259414FF48063EBE72C
:1035D8008B89F7B59D0706460C4607D504F14703C6
:1035E800236023610123636103B0F0BD01AB6A4628
:1035F800FFF7C8FF009F054639463046FFF78AFEA9
:1036080048B9B4F90C309A05EED423F0030343F01B
:103618000203A381E2E7A389206043F08003A3812A
:10362800019BC4E904075BB1B4F90E10304600F001
:103638001DF828B1A38923F0030343F00103A381F4
:10364800A3891D43A581CFE738B5074D002304465C
:10365800084611462B60FDF785F9431C02D12B68FB
:1036680003B1236038BD00BF5002002038B5064DB5
:103678000023044608462B60FDF784F9431C02D159
:103688002B6803B1236038BD5002002038B5064DC1
:103698000023044608462B60FDF78CF9431C02D131
:1036A8002B6803B1236038BD50020020F8B500BF75
:1036B800F8BC08BC9E467047F8B500BFF8BC08BC0B
:0436C8009E46704763
:1036CC00696E697469616C697A6520626C756520D4
:1036DC006F7220677265656E206770696F0D0000F0
:1036EC00746F67676C65206770696F0D0000000070
:1036FC000000000000000000010203040607080996
:08370C000000000001020304AB
:0837140054CBFF7F010000000F
:04371C001D02000882
:04372000F9010008A3
:103724000024F4001000000001000000000000006C
:1037340003000000140100201C0000200000000011
:10374400140100207C010020E4010020000000009E
:103754000000000000000000000000000000000065
:103764000000000000000000000000000000000055
:103774000000000000000000000000000000000045
:0837840000000000000000003D
:0400000508000A5590
:00000001FF
